S01B000070726F676172616D206272616D6B6920632B2B2E7372656341
S113000013C02CC02BC0DFC129C028C027C026C004
S113001025C024C023C0FCC121C020C01FC01EC0F5
S11300201DC01CC01BC0170211241FBECFE5D4E0A5
S1130030DEBFCDBF20E0A0E6B0E001C01D92A43930
S1130040B207E1F710E0C4E1D0E003C02197FE015C
S113005031D2C331D107D1F767D032C2D1CFFC013D
S113006020813181428153816481758186819781A8
S1130070A1E014D220833183428353836483758344
S1130080868397830895FC01108211821282138261
S113009014821582168217821086118612861386A0
S11300A00895FC01A181B28121E030E0008002C00A
S11300B0220F331F0A94E2F78C91282B2C9313827E
S11300C00895FC01A181B28121E030E0008002C0EA
S11300D0220F331F0A94E2F720958C9128232C9346
S11300E081E083830895FC019381911103C0CF01C2
S11300F0E8DF0895913011F4CF01D3DF0895DC01D6
S11301001196ED91FC911297208130E0F9010C9049
S113011002C0F595E7950A94E2F7CF01817008953E
S11301205D9BFECF8CB908951092920017BA8CE0B3
S113013084BB8AE181BB8DE285BD8CE783BD8AB136
S113014088698AB993E099B97894E6E7F0E022E304
S113015030E03283218384E0808381E08383E2E79B
S1130160F0E03283218390838383EEE6F0E025E39D
S113017030E032832183C2E0C0838383EAE6F0E087
S11301803283218390838383E7E6F0E023E330E046
S1130190328321838083E4E6F0E03283218310827A
S11301A08EE690E08EDF8AE690E08BDFE1E6F0E019
S11301B080E390E092838183C083D1E080919300B7
S11301C08D3629F486E790E08EDF109293008091BB
S11301D093008E3609F0E2C082E790E084DF10924B
S11301E0930080919300833609F07BC086E790E00A
S11301F058DF10928E0010928F001092900010928F
S11302009100C12CD12C7601C39487E690E077DF6E
S1130210811111C081E384DF80918E0090918F0061
S1130220A0919000B091910084369105A105B1058B
S113023008F4BAC013C0C0928E00D0928F00E0922E
S11302409000F09291008FEFC81AD80AE80AF80AD1
S113025095E6C916D104E104F104B9F680E360DF40
S113026086E790E02EDF82E790E01BDF10928E009D
S113027010928F001092900010929100C12CD12CFA
S11302807601C39484E690E03ADF811110C081E3E3
S113029047DF80918E0090918F00A0919000B091E3
S11302A0910084369105A105B105B0F013C0C09248
S11302B08E00D0928F00E0929000F09291008FEF28
S11302C0C81AD80AE80AF80A95E6C916D104E1045E
S11302D0F104C1F680E324DF82E790E0F2DE1092BD
S11302E09300809193008237D1F480916000882339
S11302F049F086E790E0D5DE82E790E0E2DED09335
S113030060000BC0D093600086E790E0CADE83EC07
S113031099E00197F1F700C00000109293008091DA
S113032060008130B1F487E690E0E9DE882309F4C7
S113033045CFC093600083E7F3DE86E790E0C1DE3B
S113034082E790E0AEDE83EC99E00197F1F700C01C
S1130350000080916000823009F030CF84E690E0A4
S1130360CEDE882309F42ACF1092600086E6D8DE18
S113037082E790E0A6DE83EC99E00197F1F700C0F4
S113038000001CCF86E790E08CDE10928E00109265
S11303908F00109290001092910033CF80919300BF
S11303A0833609F09ECFEECF86E790E08ADE82E7BF
S11303B090E077DE10928E0010928F0010929000E1
S11303C0109291005BCF1F920F920FB60F921124DF
S11303D02F933F934F935F936F937F938F939F9349
S11303E0AF93BF93EF93FF9386E890E038DEFF91DD
S11303F0EF91BF91AF919F918F917F916F915F9199
S11304004F913F912F910F900FBE0F901F90189511
S11304101F920F920FB60F9211248F938CB1809379
S113042093008F910F900FBE0F901F90189510920C
S11304308600109287001092880010928900109212
S11304408A0010928B0010928C0010928D008AE723
S113045090E019DEE6E7F0E0128211821082E2E712
S1130460F0E0128211821082EEE6F0E01282118234
S11304701082EAE6F0E0128211821082E7E6F0E0F0
S1130480128211821082E4E6F0E01282118210825C
S1130490E1E6F0E012821182108208950024A7FDA3
S11304A000942A0F301D401D501D601D701D801DBD
S11304B0901D0895EE0FFF1F0590F491E02D09940F
S10704C0F894FFCFDA
S9030000FC
